:0200000460009A
:10000000464346420004015600000000030303007B
:1000100001000000010E0000881500000000000033
:1000200000000000000000000000000000000000D0
:1000300000000000000000000000000000000000C0
:10004000500000000108080000000000000000004F
:100050000000400000000000000000000000000060
:100060000000000000000000000000000000000090
:10007000000000000000000014000000000000006C
:100080000B07208B25B380A70000000000000000B4
:10009000050708B301A700000000000000000000F1
:1000A0000000000000000000000000000000000050
:1000B0000604000000000000000000000000000036
:1000C0000000000000000000000000000000000030
:1000D0000000000000000000000000000000000020
:1000E0000000000000000000000000000000000010
:1000F0000000000000000000000000000000000000
:1001000000000000000000000000000000000000EF
:1001100000000000000000000000000000000000DF
:1001200000000000000000000000000000000000CF
:1001300000000000000000000000000000000000BF
:1001400000000000000000000000000000000000AF
:10015000000000000000000000000000000000009F
:1001600071040204022000000000000000000000F2
:10017000000000000000000000000000000000007F
:10018000000000000000000000000000000000006F
:10019000000000000000000000000000000000005F
:1001A000000000000000000000000000000000004F
:1001B000000000000000000000000000000000003F
:1001C000000100000010000001010000000000001C
:1001D000001000000000000000000000000000000F
:1001E000000000000000000000000000000000000F
:1001F00000000000000000000000000000000000FF
:10100000D1002041ED24006000000000301000609D
:1010100020100060001000600000000000000000D0
:10102000000000600000400000000000FFFFFFFF24
:10103000D2043041CC03AC04400FC068FFFFFFFF77
:10104000400FC06CFFFFFFFF400FC070FFFFFFFFAE
:10105000400FC074FFFFFFFF400FC078FFFFFFFF8E
:10106000400FC07CFFFFFFFF400FC080FFFFFFFF6E
:10107000400D803000002001400D8100001D000067
:10108000400FC01400010D40401F801400000000FC
:10109000401F801800000000401F801C000000005E
:1010A000401F802000000000401F8024000000003E
:1010B000401F802800000000401F802C000000001E
:1010C000401F803000000000401F803400000000FE
:1010D000401F803800000000401F803C00000000DE
:1010E000401F804000000000401F804400000000BE
:1010F000401F804800000000401F804C000000009E
:10110000401F805000000000401F8054000000007D
:10111000401F805800000000401F805C000000005D
:10112000401F806000000000401F8064000000003D
:10113000401F806800000000401F806C000000001D
:10114000401F807000000000401F807400000000FD
:10115000401F807800000000401F807C00000000DD
:10116000401F808000000000401F808400000000BD
:10117000401F808800000000401F808C000000009D
:10118000401F809000000000401F8094000000007D
:10119000401F809800000000401F809C000000005D
:1011A000401F80A000000000401F80A4000000003D
:1011B000401F80A800000000401F80AC000000001D
:1011C000401F80B000000010401F80B400000000ED
:1011D000401F80B800000000401F8204000110F989
:1011E000401F8208000110F9401F820C000110F915
:1011F000401F8210000110F9401F8214000110F9F5
:10120000401F8218000110F9401F821C000110F9D4
:10121000401F8220000110F9401F8224000110F9B4
:10122000401F8228000110F9401F822C000110F994
:10123000401F8230000110F9401F8234000110F974
:10124000401F8238000110F9401F823C000110F954
:10125000401F8240000110F9401F8244000110F934
:10126000401F8248000110F9401F824C000110F914
:10127000401F8250000110F9401F8254000110F9F4
:10128000401F8258000110F9401F825C000110F9D4
:10129000401F8260000110F9401F8264000110F9B4
:1012A000401F8268000110F9401F826C000110F994
:1012B000401F8270000110F9401F8274000110F974
:1012C000401F8278000110F9401F827C000110F954
:1012D000401F8280000110F9401F8284000110F934
:1012E000401F8288000110F9401F828C000110F914
:1012F000401F8290000110F9401F8294000110F9F4
:10130000401F8298000110F9401F829C000110F9D3
:10131000401F82A0000110F9401F82A4000110F9B3
:10132000401F82A8000110F9402F000010000004A7
:10133000402F000800030524402F000C060305245D
:10134000402F00108000001B402F00148200001B63
:10135000402F00188400001B402F001C8600001B3B
:10136000402F002090000021402F0024A0000019F1
:10137000402F0028A8000017402F002CA900001BB8
:10138000402F003000000021402F0004000079A809
:10139000402F004000000F31402F004400652922FB
:1013A000402F004800010920402F004C50210A081E
:1013B000402F008000000021402F00840088888892
:1013C000402F009400000002402F00980000000011
:1013D000402F009080000000402F009CA55A000F75
:1013E000CF000C1C402F003C00000001CC00140476
:1013F000402F009080000000402F009CA55A000C58
:10140000CF000C1C402F003C00000001CC00140455
:10141000402F009080000000402F009CA55A000C37
:10142000CF000C1C402F003C00000001CC001C042D
:10143000402F00A000000033402F009080000000EB
:10144000402F009CA55A000ACF000C1C402F003CE6
:1014500000000001CC000C04402F004C50210A0970
:10200000F8310020ED24006049250060B52600600D
:1020100000000000000000000000000000000000C0
:102020000000000000000000000000004D250060DE
:1020300000000000000000004F250060CDC00060DF
:102040005525006057250060592500605B2500601C
:102050005D2500605F2500606125006063250060EC
:102060006525006067250060692500606B250060BC
:102070006D2500606F25006071250060732500608C
:102080007525006077250060792500607B2500605C
:10209000D9C0006055C10060D1C1006083250060D7
:1020A000852500604DC20060892500608B25006099
:1020B0008D2500608F2500609125006093250060CC
:1020C0009525006097250060992500609B2500609C
:1020D0009D2500609F250060A1250060A32500606C
:1020E000A5250060A7250060A9250060AB2500603C
:1020F000AD250060AF250060B1250060B32500600C
:10210000B5250060B7250060B9250060BB250060DB
:10211000BD250060BF250060C1250060C3250060AB
:10212000C5250060C7250060C9250060CB2500607B
:10213000CD250060CF250060D1250060D32500604B
:10214000D5250060D7250060D9250060DB2500601B
:10215000DD250060DF250060E1250060E3250060EB
:10216000E5250060E7250060E9250060EB250060BB
:10217000ED250060EF250060F1250060F32500608B
:10218000B96B0060C96B0060D96B0060E96B0060DF
:10219000F96B0060096C0060196C0060296C0060CC
:1021A000396C0060496C0060092600600B260060F5
:1021B0000D2600600F2600601126006013260060C7
:1021C0001526006017260060192600601B26006097
:1021D0001D2600601F260060212600602326006067
:1021E0002526006027260060292600602B26006037
:1021F0002D2600602F260060F55C0060332600600D
:102200003526006037260060392600603B260060D6
:102210003D2600603F2600604126006043260060A6
:102220004526006047260060492600604B26006076
:102230004D2600604F260060512600605326006046
:102240005526006057260060592600605B26006016
:102250005D2600605F2600606126006063260060E6
:102260006526006067260060692600606B260060B6
:102270006D2600606F260060712600607326006086
:102280007526006077260060792600607B26006056
:102290007D2600607F260060812600608326006026
:1022A0008526006087260060892600608B260060F6
:0822B0008D260060596C0060EE
:1022B8004D4B5A69900170B51CD5986900F440508F
:1022C800B0F5805F65D0B0F5005F73D0002864D0AA
:1022D8000020454B5B69C3F3C2630133B0FBF3F0E5
:1022E800414B424A5B69C3F382230133B0FBF3F0ED
:1022F800106070BD3E4B1A68D10342D51B683D4D36
:1023080013F4404F18BF0025394B1A6BD20330D550
:102318001B6B384C13F4404F18BF0024344E002375
:102328003448316D326EA1FB00010BF02DFD2E4AB1
:102338002044936903F44023B3F5002F42D00ED80C
:10234800002BCDD0B3F5802F25D1D6F80031C3F3BB
:102358000543B0FBF3F303EBC3035800C0E7B3F541
:10236800402F18D1106900F007000130B5FBF0F0DC
:10237800B6E71A6B204812F0010F204C18BF04462C
:10238800CCE71D681B4B05F07F0503FB05F56D08C1
:10239800BAE718489DE70020A2E7A3F510331A69A9
:1023A80012F4803F1A6917D0124B12F4404F08BF3D
:1023B80018468EE70E4B0F481B6B13F4404F18BF9F
:1023C800002086E7D6F8003103F03F03B0FBF3F3B3
:1023D80003EBC303580083E7084B12F0020F0648CB
:1023E80008BF184675E700BF00C00F40C4020020B0
:1023F80000800D4000366E0100A4781F00389C1C38
:10240800704700BF3248334A334908B5D0F888309E
:1024180043F47003C0F88830138923F001031B04C8
:102428001B0C13810B8923F001031B041B0C0B816C
:102438001388580705D5138823F004031B041B0CC5
:102448001380254A1388590705D5138823F00403F8
:102458001B041B0C1380214B1A68920431D5204AA7
:102468005A601E4A4FF6FF734FF0E02193601368DD
:1024780023F0A00343F0200313600B69D80703D5AA
:102488000B6923F001030B61114B5A69920315D4B0
:102498005A6912F4003211D1BFF34F8FBFF36F8F17
:1024A800C3F85022BFF34F8FBFF36F8F5A6942F4BE
:1024B80000325A61BFF34F8FBFF36F8FFFF7A0FF52
:1024C80008BD4CF220514DF6281259605A60C8E7F1
:1024D80000ED00E000800B4000000D4000C00B4004
:1024E80020C528D90E4820F0070085460D488047AA
:1024F8000D480E490E4A884204D003681360043020
:102508000432F8E70B480C4901600C48016841F4B3
:1025180070010160BFF34F8FBFF36F8F00F0D0B829
:10252800000002200D24006000200060B822006036
:102538000000002008ED00E00000002088ED00E029
:10254800FEE7FEE7FEE7FEE7FEE7FEE7FEE7FEE75B
:10255800FEE7FEE7FEE7FEE7FEE7FEE7FEE7FEE74B
:10256800FEE7FEE7FEE7FEE7FEE7FEE7FEE7FEE73B
:10257800FEE7FEE7FEE7FEE7FEE7FEE7FEE7FEE72B
:10258800FEE7FEE7FEE7FEE7FEE7FEE7FEE7FEE71B
:10259800FEE7FEE7FEE7FEE7FEE7FEE7FEE7FEE70B
:1025A800FEE7FEE7FEE7FEE7FEE7FEE7FEE7FEE7FB
:1025B800FEE7FEE7FEE7FEE7FEE7FEE7FEE7FEE7EB
:1025C800FEE7FEE7FEE7FEE7FEE7FEE7FEE7FEE7DB
:1025D800FEE7FEE7FEE7FEE7FEE7FEE7FEE7FEE7CB
:1025E800FEE7FEE7FEE7FEE7FEE7FEE7FEE7FEE7BB
:1025F800FEE7FEE7FEE7FEE7FEE7FEE7FEE7FEE7AB
:10260800FEE7FEE7FEE7FEE7FEE7FEE7FEE7FEE79A
:10261800FEE7FEE7FEE7FEE7FEE7FEE7FEE7FEE78A
:10262800FEE7FEE7FEE7FEE7FEE7FEE7FEE7FEE77A
:10263800FEE7FEE7FEE7FEE7FEE7FEE7FEE7FEE76A
:10264800FEE7FEE7FEE7FEE7FEE7FEE7FEE7FEE75A
:10265800FEE7FEE7FEE7FEE7FEE7FEE7FEE7FEE74A
:10266800FEE7FEE7FEE7FEE7FEE7FEE7FEE7FEE73A
:10267800FEE7FEE7FEE7FEE7FEE7FEE7FEE7FEE72A
:10268800FEE7FEE7FEE7FEE74FF0E023D3F82C2D48
:10269800002A00DBFEE7D3F82C2D42F00042C3F8F5
:1026A8002C2D836902338361704700BF1EF0040F2D
:1026B8000CBFEFF30880EFF30980FFF7E5BF0000D8
:1026C800384939480A1A06D0072291438D46CC2248
:1026D800354800F061F8354935480A1A09D007220B
:1026E800914381F30988022282F31488CC2200F0F6
:1026F80053F830483049314A00F043F830483149FE
:10270800314A00F03EF831483149324A00F039F890
:1027180031483249324A00F034F832483249334AB3
:1027280000F02FF832483349334A00F02AF833488A
:102738003349344A00F025F833483449002200F080
:102748002BF833483349002200F026F83248334941
:10275800091A082903DB00220260043001601F48BF
:102768001F49884205D00268043003B4904703BC6F
:10277800F7E700208646EC4600200021284A9047CB
:10278800FEE7884207D0521A05D0037801300B7053
:102798000131013AF9D17047884202D00270013004
:1027A800FAE77047F8310020F8290020F8390020AE
:1027B800F8310020F8090160B8020020DC0200208E
:1027C8002C2800602C28006068F10060F80901607E
:1027D800B8020020B802002068F1006068F10060CB
:1027E8006CF1006068F1006068F1006068F10060F9
:1027F8006CF100606CF10060F80901601C0A01606E
:10280800F4280020F4280020DC020020F42800200E
:10281800F4280020F4280020F4280020F4290020BF
:0428280005DC00606B
:10282C00012A2DE9F0474FEA104E1FFA80F900F00B
:10283C00D980002900F0A4810F2A72D941F2AF5639
:10284C00B24240F2EA8001F5AE50DFF8C48141F2A9
:10285C00B0556E4C174601F1100C42441CF8103C5C
:10286C000CF1100C1CF81FAC4B440AEB03091CF8C0
:10287C001EAC4B44CA441CF81D9C5344D1441CF858
:10288C001CAC4B44CA441CF81B9C5344D1441CF84C
:10289C001AAC4B44CA441CF8199C5344D1441CF840
:1028AC0018AC4B44CA441CF8179C5344D1441CF834
:1028BC0016AC4B44CA441CF8159C5344D1441CF828
:1028CC0014AC4B44CA441CF8139C5344D1441CF81C
:1028DC0012AC4B44CA441CF8119C60455344D1447F
:1028EC004B449E44BAD1A4FB093CB242A4FB0EA3B8
:1028FC0029444FEADC3C28444FEAD333CCEB0C3A66
:10290C000CEB0A1CA9EB0C09C3EB033C03EB0C13FB
:10291C00AEEB030E9ED8002A7CD149EA0E40BDE8EE
:10292C00F087002A48D00B78012A9944CE4443D032
:10293C004B78022A9944CE443ED08B78032A994492
:10294C00CE4439D0CB78042A9944CE4434D00B7978
:10295C00052A9944CE442FD04B79062A9944CE446B
:10296C002AD08B79072A9944CE4425D0CB79082AD2
:10297C009944CE4420D00B7A092A9944CE441BD0DA
:10298C004B7A0A2A9944CE4416D08B7A0B2A994456
:10299C00CE4411D0CB7A0C2A9944CE440CD00B7B6C
:1029AC000D2A9944CE4407D04B7B0E2A9944CE4431
:1029BC0002D08B7B9944CE444FF6F073994503D9E2
:1029CC00A9F57F49A9F1F109104BA3FB0E23DB0BF1
:1029DC00C3EB033203EB0213AEEB030349EA0340F0
:1029EC00BDE8F0870A784FF6F0739144994503D906
:1029FC00A9F57F49A9F1F109CE444FF6F0739E4534
:102A0C008BD9AEF57F4EAEF1F10E86E77180078063
:102A1C0050EAFFFF0F2A40F2B680A2F1100501F137
:102A2C00200401F1100025F00F062D09344410F894
:102A3C00103C103010F81FCC4B4410F81E7C10F8D2
:102A4C00119C9C446744634410F81DCC3B44BC442B
:102A5C0010F81C7C6344674410F81BCC3B44BC440A
:102A6C0010F81A7C6344674410F819CC3B44BC44FE
:102A7C0010F8187C6344674410F817CC3B44BC44F2
:102A8C0010F8167C6344674410F815CC3B44BC44E6
:102A9C0010F8147C6344674410F813CC3B44BC44DA
:102AAC0010F8127C844267446344B9443B444B4461
:102ABC009E44BCD1A2F111030135120701EB0511A3
:102ACC00A3EB060348D00A789144CE44002B43D0A4
:102ADC004A78012B9144CE443ED08A78022B914403
:102AEC00CE4439D0CA78032B9144CE4434D00A79E1
:102AFC00042B9144CE442FD04A79052B9144CE44DB
:102B0C002AD08A79062B9144CE4425D0CA79072B3A
:102B1C009144CE4420D00A7A082B9144CE441BD049
:102B2C004A7A092B9144CE4416D08A7A0A2B9144C6
:102B3C00CE4411D0CA7A0B2B9144CE440CD00A7BD4
:102B4C000C2B9144CE4407D04A7B0D2B9144CE44A0
:102B5C0002D08B7B9944CE440C4BA3FB0912A3FBF4
:102B6C000E13D20BDB0BC2EB023102EB0112C3EBE7
:102B7C000331A9EB020903EB0113AEEB030ECCE618
:102B8C000120BDE8F087024B3B449CE77180078035
:102B9C004FEAFFFF2DE9F041C37806460C4600F1E1
:102BAC003808002B58D1F369A11E023B99426BD215
:102BBC007389376B01FB03774FF400720021404699
:102BCC0077630BF005FA708942020346B2F5004FA9
:102BDC00144628BF4FF40044B2F5007F04D82AE015
:102BEC006408B4F5007F24D9204602F079FF05462D
:102BFC000028F5D0224600214FEA54280BF0E8F9C2
:102C0C0074896CB1002403E044447389A34207D94E
:102C1C003A1943462946707803F028F80028F3D077
:102C2C00284602F061FF7389E01A18BF0120BDE845
:102C3C00F0817089034660B3002403E0013473898A
:102C4C00A342F1D9E21901234146707803F00EF842
:102C5C000028F3D07389E7E7426B012340784146A3
:102C6C0003F004F890B9716BB36A326ACB1AF07046
:102C7C00934298D2B378022B95D10A440123414652
:102C8C00707802F0F3FF8EE7002795E70120BDE88E
:102C9C00F0810446C8E700BF426B8A422CD070B565
:102CAC00C3780D4682B0044600F1380163B90123A4
:102CBC002A46607802F0C4FF10B9656302B070BD9B
:102CCC0001204FF0FF35F8E701234078019102F025
:102CDC00CDFF98B9666BA36A226AF31A0199E0706A
:102CEC009342E4D2A378022BE1D1324401236078E1
:102CFC0002F0BCFF0199DAE700207047012002B016
:102D0C0070BD00BF2DE9F84F067804460D4690467D
:102D1C00022E07D0032E41D0012E1BD0022738469D
:102D2C00BDE8F88F816A01EB1521FFF7B5FF074667
:102D3C000028F4D16D0004F13803C8F307220121F7
:102D4C0005F4FF75384603F805802B445A70E17082
:102D5C00BDE8F88F816A05EB550901EB5921FFF7A6
:102D6C009BFF07460028DAD1EB0709F1010B04F1B0
:102D7C00380AC9F308092AD51AF80930204603F095
:102D8C000F0343EA08130AF80930A16AE67001EB55
:102D9C005B21FFF781FFA0B30746C0E7816A01EB17
:102DAC00D511FFF779FF07460028B8D1AD0004F123
:102DBC00380128F07042012005F4FE754B5903F0E0
:102DCC00704313434B51E0703846BDE8F88F0AF856
:102DDC0009802046A16AE67001EB5B21FFF75CFFDE
:102DEC000028D9D1CBF3080BC8F303221AF80B3007
:102DFC00DA4423F00F03134301228AF80030E27007
:102E0C008DE7CBF3080BC8F30713DA44F4E700BFE4
:102E1C0001290ED9F8B5C3690C460546994206D26C
:102E2C000378022B21D0032B10D0012B03D00120CF
:102E3C00F8BD01207047816A04EB540701EB572160
:102E4C00FFF72AFFF0B14FF0FF30F8BD816A01EBBC
:102E5C00D411FFF721FF0028F5D1A40004F4FE746F
:102E6C002544A86B20F07040F8BD816A01EB142159
:102E7C00FFF712FF0028E6D1630003F4FF732B4425
:102E8C00188FF8BDC7F30803A96A013728462B44ED
:102E9C0001EB572193F83860FFF7FEFE0028D2D1E2
:102EAC00C7F308072F4497F8383046EA0320E307A6
:102EBC004CBF0009C0F30B00F8BD00BF70B5C37860
:102ECC0004465BB92378032B23D00022607811468B
:102EDC0002F0E2FE003818BF012070BD00F1380589
:102EEC00426B01234078294602F0C0FE002839D1FC
:102EFC00616BA36A226ACB1AE0709342E2D2A37888
:102F0C00022BDFD10A4401232946607802F0AEFE81
:102F1C00D8E72579012DD8D104F138064FF4007289
:102F2C00002130460BF054F80F484AF65523A063A5
:102F3C0000F1FF50A4F836322B4600F50050D4E9CE
:102F4C0005122030C4F82022626AC4F824123146DB
:102F5C000132C4F81C026078626302F087FE002321
:102F6C002371B2E7012070BD5252614170B54FF030
:102F7C00FF3600230446B142C37046630CD00D46A5
:102F8C000A46012300F13801407802F059FE10B1D5
:102F9C000420666370BD656394F83820B4F836522B
:102FAC0002F11803DBB2012B01D9EB2A16D14AF638
:102FBC0055239D4219D0B4F843305A1E1A420BD1F6
:102FCC0094F8452042B1B3F5007F05D1531E13424E
:102FDC0002D1B4F846300BBB032070BD4AF6552025
:102FEC00854214BF0320022070BD0822184904F149
:102FFC008A000BF01DF80028CCD0B4F843305A1ED0
:10300C001A4222D194F84520FAB1B3F5007F1CD1B5
:10301C00531E134219D1B4F84630B3B194F848306A
:10302C00013B012BDAD8B4F84930002BD6D0B4F8D8
:10303C004B307F2B03D8A36DB3F5803FCED3B4F8C0
:10304C004E30002BCAD0002070BD022070BD00BFD6
:10305C006CF10060F8B5002304680B607CB1154678
:10306C000E46224612F8013B1F2B0BD93A2BF9D1F5
:10307C002378302B03D10234A24200F0E4800B25DC
:10308C002846F8BD3A2BF3D0954B1C68002C00F069
:10309C00C180206902F03EFD002800F0BE80346043
:1030AC0005F0FE0523785BB1607802F0B1FDC10735
:1030BC0006D41DB110F0040540F0AA802846F8BDD6
:1030CC000020208002F030FDC20700F1A98015B16C
:1030DC00430700F19D8000212046FFF747FF02289F
:1030EC0004D0042840F0AB800125E7E7D4F8FE11AA
:1030FC00D4F80E52D4F81E62D4F82E7249B9002DB1
:10310C0076D1002E7CD1002F40F08C800D252846E6
:10311C00F8BD2046FFF72AFF0128F0D8B4F8433059
:10312C00616BB3F5007FF1D1B4F84E30002B00F099
:10313C00848094F848202362501EA2700128E5D8A0
:10314C0094F84550A8B260810028DFD0681E284250
:10315C00DCD1B4F849C01CF00F0FA4F808C0D5D1CD
:10316C00B4F84B0000B9A06DB4F84660002ECDD079
:10317C0003FB02F206EB1C171744B842C6D3A0EBB4
:10318C00070EAE45BEFBF5F0C0D3564DA842BDD8D8
:10319C004FF6F575A84258D840F6F5750E440F4415
:1031AC006162A84200F102002763E061A6626ED85A
:1031BC00BCF1000FAAD0164400EB400200F0010055
:1031CC0000EB5200012200F2FF10E662B3EB502F2D
:1031DC009CD34FF0FF338021C4E905332171424960
:1031EC00002522700B8801339BB20B80E38065E7CE
:1031FC0029462046FFF7BAFE01288FD9002E82D02F
:10320C0031462046FFF7B2FE01283FF67CAF85E73A
:10321C000A2553E70C252846F8BD0F252846F8BD8E
:10322C0003254BE739462046FFF7A0FE01287FF621
:10323C0075AF04283FF458AF68E7E36D79E70128D0
:10324C007FF66CAF62E702601EE7B4F862200230D2
:10325C000E440F445CEA0202E061A66227636162DD
:10326C007FF454AF8000656E00F2FF12E562B3EBA1
:10327C00522FFFF44BAFB4F868204FF0FF3380208F
:10328C00012A2071C4E9053309D00322A7E7BCF158
:10329C00000F3FF43BAF16444000022293E701318C
:1032AC002046FFF7F9FC0028EFD14AF65523B4F875
:1032BC00362220719A42E8D1A26B0C4B9A42E4D18F
:1032CC0003F1FF53D4F81C2203F5005320339A4228
:1032DC00DBD10322D4E98831C4E905137FE700BFB1
:1032EC00DC020020F5FFFF0FE0020020525261418A
:1032FC002DE9F84F07468946D0F8008071BBD8F805
:10330C001460FEB1D8F81C30B34298BF0126D8F82F
:10331C001830E3B1D8F81C30344601349C4219D330
:10332C00012E14D03D680224EB69A34207D92B78F7
:10333C00022B00F09280032B48D0012B38D00120B7
:10334C00BDE8F88FD8F818300126002BE2D1002008
:10335C00BDE8F88F012C3D68F1D9E5E74046FFF751
:10336C0057FD0128EBD9441C2CD0D8F81C308342D3
:10337C00E6D8D8F81820002AE9D009F101043868F9
:10338C00A34298BF02242146FFF742FD0128D7D063
:10339C00411CD5D0002800F08A80D8F81460D8F8E9
:1033AC001C30012E40F28780B34298BF4E46B3E7E3
:1033BC00A96A04EB540B284601EB5B21FFF76CFC6C
:1033CC00002858D04FF0FF30BDE8F88FA96A284686
:1033DC0001EBD411FFF760FC0028F3D1A30003F438
:1033EC00FE731D44AB6B23F070436BBBD8F81C30E1
:1033FC00A342A4D94FF0FF3221464046FFF782FC8E
:10340C0070B9B9F1000F0BD0B9F1010F97D0D8F802
:10341C001C30994593D2224649464046FFF772FC30
:10342C0000284AD1C8F81440D8E90623023B9A4236
:10343C0002D8013AC8F8182098F80430204643F016
:10344C00010388F804307BE7012B3FF478AFA642E8
:10345C003FF47DAFD8F81C305FE7A96A284601EB32
:10346C001421FFF719FC0028ACD1630003F4FF739F
:10347C002B441B8FB9E7CBF30803A96A0BF1010BA3
:10348C0028462B4401EB5B2193F838A0FFF704FC92
:10349C00002897D1CBF3080BE207AB449BF83830EC
:1034AC004AEA03234CBF1B09C3F30B039DE7002C13
:1034BC009CD1D8F81C304E462EE7012882D03EE72E
:1034CC002DE9F0470569044606682035B5F5001F5F
:1034DC0004D300230420A361BDE8F0878369002B8B
:1034EC004DD0C5F30808B8F1000F36D10F460133A3
:1034FC0041698361002937D07389013B13EA55294F
:10350C002BD13046FFF784FC0128824633D9B0F129
:10351C00FF3F2ED0F369834212D8002FD9D06169B6
:10352C002046FFF7E5FE824638B3012823D0B0F1E0
:10353C00FF3F1ED001463046FFF72CFBC8B9F3699C
:10354C00023BAAF10201C4F814A0994203D2728979
:10355C00336B01FB0239C4F8189038360020256112
:10356C004644E661BDE8F0873389B3EB551FF4D8C8
:10357C00AFE70120B0E70220AEE70720ACE704205C
:10358C00AAE700BFB1F5001F2DE9F84FD0F8008075
:10359C004ED2CA060C464BD1856806460161002DF9
:1035AC0049D0B8F80A30B4EB432F4FEA4329C0F0A6
:1035BC008480012D3CD0474637E03B78022B6ED0FF
:1035CC00032B5CD0012B33D1B96A05EB550A384675
:1035DC0001EB5A21FFF760FB00284DD1CAF3080319
:1035EC00B96A0AF1010A38463B4401EB5A2193F8B7
:1035FC0038B0FFF751FB00283ED1CAF3080ABA4491
:10360C009AF838304BEA032BEB074CBF4FEA1B15EB
:10361C00CBF30B05012D0BD9D8F81C30AB4207D9D5
:10362C00A4EB0904A1454AD83768FB69AB42C4D85E
:10363C000220BDE8F88F98F80030022B16D8B8F8A5
:10364C000830B3EB541FF3D9D8F82C30C6E9055326
:10365C00002BEDD008F13808C4F3080103EB542318
:10366C0000204144C6E90631BDE8F88FD8F82C306B
:10367C00002BE4D01D4694E70120BDE8F88FB96A11
:10368C00384601EBD511FFF707FB0028F4D1AB004E
:10369C0003F4FE733B449D6B25F07045BAE7B96AA1
:1036AC00384601EB1521FFF7F7FA0028E4D16B003F
:1036BC0003F4FF733B441D8FACE7D8F81C30023B7E
:1036CC00AA1E9A4206D2B8F80A10D8F8303002FB7B
:1036DC000133BBE70023C6E90553A9E72DE9F04FF9
:1036EC00002185B00446D0F80080FFF74BFF074659
:1036FC00E0B94FF0FF094FF0FF33A6694F46E36284
:10370C00D8F83420B24217D098F8033008F13801B9
:10371C00002B58D10123324698F8010002F090FAA0
:10372C0040B14FF0FF330127C8F83430384605B0AC
:10373C00BDE8F08FC8F83460E5692E78002E00F0F3
:10374C002281EB7AE52E03F03F02A27103D01B0716
:10375C0026D50F2A62D04FF0FF33FF27E36225698D
:10376C0023682035B5F5001F06D3042700233846FF
:10377C00A36105B0BDE8F08FA669002E00F00381AF
:10378C00C5F308023AB901366169A66131BB1989E2
:10379C00B1EB551FE9D9383325611344E361AFE729
:1037AC000F2A3BD0002F00F09C8094F82B7017F060
:1037BC000107D0D10B22284604F120010AF038FC75
:1037CC000028C8D1B2E7012398F80100009102F05B
:1037DC004DFA009900286AD00127A7E758890138CB
:1037EC0010EA5520D7D1184601920093FFF710FB31
:1037FC00012840F2CA80431CEED0009BD969884254
:10380C00B3D2023960610238019A884280F0BF80DD
:10381C0059891E6B00FB0166A661BCE794F82B303E
:10382C0058069CD4710640F1A980236906F0BF06A6
:10383C0095F80D90E3626B7B4B4540F0A2806B8B4F
:10384C00002B40F09E802F780121D8F80C2007F037
:10385C003F07DFF864A102962E46013F0AF10D0BDB
:10386C001546039207EB4703CDF80080019407EB54
:10387C0083070FE0FF2F204615D801F02BFB804665
:10388C0035F81700013701F025FB804521460AD198
:10389C00DA457ED01AF8013BF45A0029EAD14FF6EA
:1038AC00FF739C42F4D0DDE90084FF2757E7D8F87A
:1038BC00283088F80300D8F83400D8F82020C31A30
:1038CC009342BFF427AF98F80230022B7FF422AF5B
:1038DC000244012398F80100009102F0C7F9009905
:1038EC0018E72A786978D001AE78EB7840EA520074
:1038FC002A7995F805A0084495F806E095F807C0D4
:10390C00C0F3460141EAC011687A56FA81F12E7A69
:10391C00C1F3460B4BEAC11BA97A53FA8BFBCBF3D1
:10392C00460343EACB1352FA83F3C3F3460242EA4B
:10393C00C3125AFA82F2C2F3460343EAC2135EFA86
:10394C0083F3C3F3460242EAC3125CFA82F2C2F377
:10395C00460343EAC21356FA83F3C3F3460242EA20
:10396C00C31250FA82F2C2F3460343EAC21351FA6D
:10397C0083F3DBB299457FF418AFD7E6B7423FF437
:10398C005AAFFF27EBE60427D0E60227CEE6164611
:10399C0042E73546DDF800802B785A06DDE9014612
:1039AC0000D511B9013EF7B2D9E6039B33F81730B5
:1039BC00002BF7D0E5E700BF0CF200602DE9F04FCB
:1039CC000B7885B002680D462F2B8246009203D1EE
:1039DC0015F8013F2F2BFBD05C2BF9D00021CAF836
:1039EC0008102B781F2B40F26481009BDFF8149396
:1039FC00D3F80CB00024ABF1020715F8010B00282A
:103A0C0040F08F800426002C00F0E7800BEB440282
:103A1C0002E0013C00F0E18032F8023D202BF8D0AE
:103A2C002E2BF6D04FF000082BF81480BBF800308A
:103A3C00202B40F0F1800BF102031A4608F101082B
:103A4C00023311882029F8D046F0030608F101084A
:103A5C00F6B20BEB440333F8021D2E2901D0013CC6
:103A6C00F9D14FF02033CAF82430CAF82030CAF804
:103A7C002730118881B3504600270822DA46019579
:103A8C00A34615463C460346202903D02E2967D170
:103A9C00C34565D046F00306F6B23AF8181008F1A3
:103AAC0001080029F0D19A4693F820302A46019D4E
:103ABC00E52B02D105238AF82030082A00F0B380C8
:103ACC0007F00C030C2B04D007F00303032B40F07E
:103ADC00B48046F00206F6B250468AF82B60FFF727
:103AEC00FDFD9AF82B30002840F0BF805A0734D4E3
:103AFC009AF80630DB0640F1EF800099DAF81020D6
:103B0C0001F138030978C2F30802032913445A8BD4
:103B1C0002D19B8A42EA0342DAF80030CAF8082044
:103B2C0066E740F2523101F0C1F90646A0B11F2EF2
:103B3C00484631467FF666AF2F2E3BD05C2E39D0EF
:103B4C007F2E02D80AF0E6F930B9FF2C04F10104FB
:103B5C0002D027F8026F50E7062005B0BDE8F08FC1
:103B6C00AC4217D2C34515D07F293DD86348CDE967
:103B7C0002130AF0CFF9DDE90213002800F08B8064
:103B8C00324642F00301CEB25F211819013480F89D
:103B9C00201082E70B2D00F0A380C34504D046F023
:103BAC000306F6B2FFF47FAFBF00D8460B250824FE
:103BBC00FFB272E72E785C2E01D02F2E05D115F8AE
:103BCC00016F2F2EFBD05C2EF9D01F2E8CBF002640
:103BDC000126B600002C7FF419AF00230620ABF8A9
:103BEC00003005B0BDE8F08F084646F002010393A3
:103BFC00CAB240F25231029201F038F910F0800F43
:103C0C000146DDE9022338D000F07F013C48415CDD
:103C1C000029B6D01646A9E72E2B5A463FF414AF0E
:103C2C004FF0010815E7BB0003F00C02DFB20C2AC1
:103C3C003FF44FAFB30708D54EE7B4073FF54CAF91
:103C4C00F80702D546F01006F6B279077FF544AFB7
:103C5C0046F008065046F6B28AF82B60FFF73EFD98
:103C6C009AF82B3000283FF441AF04287FF475AF4D
:103C7C0013F0040F08BF05206FE7FF28C8D9681E92
:103C8C00A04211D918194FEA112C16460134C9B2A9
:103C9C0080F820C079E7A1F1410080B2192811D831
:103CAC0047F00207C9B270E746F003062C46F6B29D
:103CBC00F3E6802350468AF82B3005B0BDE8F04F70
:103CCC00FFF760BCA1F1610080B219289CBF2039BC
:103CDC0047F00107C9B258E7052005B0BDE8F08FE1
:103CEC009A4693F8203046F00306019DE52BF6B278
:103CFC007FF4E6AE05238AF82030E1E684F100601B
:103D0C008CF1006078F100602DE9F04F90F82B30C9
:103D1C0089B013F0A001019340F0C88206680446F4
:103D2C00F2681388002B00F0E4828B4632F8023FD5
:103D3C000BF1010B002BF9D104F120050DF1140945
:103D4C00019B95E8070089E80700D90740F18D81B0
:103D5C004022AE464FF00108CE4F84F82B20C446CB
:103D6C0099E80700AEE803002EF8022B120C8EF82F
:103D7C0000200CF00F014FEA1C1201F13003392B1B
:103D8C0088BF01F13703BCF10F0F8DF8133040F2EF
:103D9C00FB8102F00F004FEA1C2100F13003392B9C
:103DAC0088BF00F137030F2A8DF8123040F21982C8
:103DBC0001F00F004FEA1C3200F13003392B88BFA1
:103DCC0000F137030F298DF8113040F2318202F0E7
:103DDC000F004FEA1C4100F13003392B88BF00F172
:103DEC0037030F2A8DF8103040F22B8201F00F02AE
:103DFC004FEA1C5002F13003392B88BF02F1370314
:103E0C000F298DF80F3040F2258200F00F014FEA98
:103E1C001C6301F13002392A88BF01F137020F28E7
:103E2C008DF80E2040F2258203F00F0303F13002CF
:103E3C00392A88BF03F137027E238DF80D20022228
:103E4C008DF80C301346BDF80C10218402F12001C2
:103E5C00072B03F10100694411F8141CE95402F119
:103E6C0001013FD0082900F0468102F12101062B07
:103E7C00694411F8141C295402F1020103F10200E7
:103E8C0030D0082900F0498102F12201052B694448
:103E9C0011F8141C295402F1030103F1030021D081
:103EAC00082900F0638102F12301042B694411F805
:103EBC00141C295402F1040103F1040012D0082946
:103ECC0000F05B8102F1240306280DEB030111F8CD
:103EDC00143C2B5406D1022A0CBF9DF8133020231E
:103EEC0084F827302046FFF7F9FB8246002840F083
:103EFC00218108F10108B8F1640F00F031812B46E3
:103F0C00D6F80CC0B8F1050F99E8070003C34FEAC7
:103F1C00124123F8022B197040F2EB80BCF80030F0
:103F2C00002B00F0E68003F001026046590802EB1A
:103F3C00480201F001014FEA930C01EB420112041B
:103F4C000CF001024FEAD30C48BF79400CF0010C85
:103F5C0002EB410209044FEA131148BF7A4001F009
:103F6C0001010CEB420C12044FEA531248BF8CEACD
:103F7C00070C02F0010201EB4C011CF4004F4FEA5C
:103F8C00931C18BF79400CF0010C02EB41020904A0
:103F9C004FEAD31148BF7A4001F001010CEB420CFF
:103FAC0012044FEA132248BF8CEA070C02F00102FC
:103FBC0001EB4C011CF4004F4FEA532C18BF794015
:103FCC000CF0010C02EB410209044FEA932148BFAB
:103FDC007A4001F001010CEB420C12044FEAD3229F
:103FEC0048BF8CEA070C02F0010201EB4C011CF4F7
:103FFC00004F4FEA133C18BF79400CF0010C02EB58
:10400C00410209044FEA533148BF7A4001F00101E3
:10401C000CEB420C12044FEA933248BF8CEA070CAB
:10402C0002F0010201EB4C011CF4004F4FEAD33CAF
:10403C0018BF794002EB41030A0448BF7B400CEBEC
:10404C00430C1B0430F8023F48BF8CEA070C002BD2
:10405C003FF48FAE03F001021CF4004F4FEA530102
:10406C0002EB4C0218BF7A4063E713F00207B0462C
:10407C006AD00BF10C03084A00212046A2FB032353
:10408C009F08FFF77FFA824607F1010B002864D1E5
:10409C0081460BE0211001004FECC44E5209BBB11C
:1040AC009146FFF70DFA8246002856D1A169404689
:1040BC00FEF7F2FD824609F1010901212046BAF111
:1040CC00000F4AD1E3691B78E52BB3FA83F2E5D1F3
:1040DC00CB45E6D1002F40F00E81A1693046FEF7AA
:1040EC00DBFD8246002800F0E780504609B0BDE8B1
:1040FC00F08FC4463DE62022062B2A5403F1020021
:10410C003FF4F0AE431CC0F1080220212844082BD8
:10411C0088BF012209F05CFFE4E62022052B2A541B
:10412C0003F10300EED12046FFF7D8FA82460028AF
:10413C003FF4DFAE0428D8D1019BD4F8008013F0F3
:10414C00020784F82B3094D100212046FFF71AFA8D
:10415C004FF0010B824600289AD0BAF1040FC4D15B
:10416C004FF0070A504609B0BDE8F08F2022042B0F
:10417C002A5403F10400C5D1B4E62022022B2A54A0
:10418C007FF4B0AE0720BDE77E2306218DF81230F8
:10419C0094F82030202B2CD094F82130202B00F0D8
:1041AC00148294F82230202B6ED0032924D094F85A
:1041BC002330202B78D004291ED094F82430202BC7
:1041CC0000F09080062916D194F82530202B00F0B1
:1041DC008B809DF812209DF8133084F82620EB710B
:1041EC0080E67E2305218DF8113094F82030202BA9
:1041FC00D2D1002049E005210A4602F1200305EB4B
:10420C00010C02320DEB03008B1C10F814EC05F8BA
:10421C0001E010F8131C8CF80110082A7FF416AE7C
:10422C002022072B03F10100EA547FF46BAF59E60F
:10423C007E2304218DF8103094F82030202BABD144
:10424C00D7E77E2303218DF80F3094F82030202BF4
:10425C00A2D1CEE77E238DF80E3094F82030202B9F
:10426C0000F0AD8194F82130202B3FD00222114672
:10427C00C3E77E238DF80D3094F82030202B00F00E
:10428C00A18101221146B8E7022001F120038A1C0A
:10429C0029180DEB030C831C1CF814EC05F800E03A
:1042AC001CF8130C4870B8E70320EEE74FF0060A31
:1042BC00504609B0BDE8F08F01462022E06909F0B4
:1042CC0087FEE369012203CD18605960A97828881C
:1042DC009972188194F82B30E16903F018030B7371
:1042EC00F27002E70420D0E70520CEE7022101207E
:1042FC00CBE79B4620E521692046A1EB4711FFF750
:10430C0041F9824600287FF4F0AE94F820304FF645
:10431C00FD7894F821C0DA0194F8220094F8231067
:10432C0042EA530294F8249094F825B0624494F82D
:10433C0026A094F827E0C2F3460394F828C043EA79
:10434C00C21350FA83F394F82900C3F3460242EAED
:10435C00C31251FA82F294F82A10C2F3460343EACC
:10436C00C21359FA83F24FF6FF79C2F3460343EABC
:10437C00C2135BFA83F3C3F3460242EAC3125AFA3E
:10438C0082F2C2F3460343EAC2135EFA83F3C3F329
:10439C00460242EAC3125CFA82F2C2F3460343EAD3
:1043AC00C21350FA83F3C3F3460242EAC31351FA21
:1043BC0083F35FFA83FB28E0A3F80390A3F805903E
:1043CC00A3F80790A3F80990A3F80E90A3F8109007
:1043DC00A3F81290A3F81490A3F81690A3F81890D1
:1043EC00A3F81C90A3F81E904CF0400C83F800C06E
:1043FC00012300212046F370FFF762F88246002863
:10440C007FF473AE013F3FF468AEA1693046FEF70E
:10441C0043FC824600287FF468AEE3690F225FFA02
:10442C0087FCF168A3F80B200CF1FF32588383F85A
:10443C000DB002EB420002EB800231F8120000F1E9
:10444C00FF3E5870000A1FFA8EFE98705000C64549
:10445C00B2D8013231F812E052000EF1FF3A83F873
:10446C0003E04FEA1E2E1FFA8AFA83F804E0C245D5
:10447C00A4D80A44B2F802E00EF1FF3A83F805E042
:10448C004FEA1E2E1FFA8AFA83F806E0C24597D827
:10449C00B2F804E00EF1FF3A83F807E04FEA1E2E63
:1044AC001FFA8AFA83F808E0C2458BD8B2F806E006
:1044BC000EF1FF3A83F809E04FEA1E2E1FFA8AFA32
:1044CC0083F80AE0C2453FF67FAFB2F808E00EF180
:1044DC00FF3A83F80EE04FEA1E2E1FFA8AFA83F891
:1044EC000FE0C2453FF672AFB2F80AE00EF1FF3AA8
:1044FC0083F810E04FEA1E2E1FFA8AFA83F811E0B7
:10450C00C2453FF665AFB2F80CE00EF1FF3A83F806
:10451C0012E04FEA1E2E1FFA8AFA83F813E0C24506
:10452C003FF658AFB2F80EE00EF1FF3A83F814E004
:10453C004FEA1E2E1FFA8AFA83F815E0C2453FF6A1
:10454C004BAFB2F810E00EF1FF3A83F816E04FEAE9
:10455C001E2E1FFA8AFA83F817E0C2453FF63EAFCB
:10456C00B2F812E00EF1FF3A83F818E04FEA1E2E73
:10457C001FFA8AFA83F819E0C2453FF631AFB2F858
:10458C0014E00EF1FF3A83F81CE04FEA1E2E1FFADE
:10459C008AFA83F81DE0C2453FF624AFD28A02F1B5
:1045AC00FF3E9A77120ADA771FFA8EF242453FF6EF
:1045BC001BAF0A18528B002A7FF418AF14E70221A4
:1045CC00002062E6012100205FE601205DE600BFCD
:1045DC0001292DE9F04F0C4683B0056814D9EB691D
:1045EC008B4211D90646114692B92F4605F138096E
:1045FC004FF001089C4207D23B78022B00F0A380BD
:10460C00032B22D0012B11D0022003B0BDE8F08F78
:10461C009342F9D9012AF7D04FF0FF322846FEF722
:10462C0071FB0028F1D13768FB69DFE7B96A04EB4D
:10463C00540A384601EB5A21FEF72EFB002800F0F5
:10464C00A980012003B0BDE8F08FB96A384601EBB0
:10465C00D411FEF721FB0028F3D1A30003F4FE7361
:10466C003B44D3F838A02AF0704ABAF1000F00F09E
:10467C00AF80BAF1010FC7D0EB69A342C4D92F7830
:10468C00022F29D0032F47D0012FBDD1A96A04EBEB
:10469C00540B284601EB5B21FEF7FEFA0028B4D13F
:1046AC00E2070BF10103CBF3080B5CD519F80B20D7
:1046BC002846019302F00F0209F80B20A96AEF704B
:1046CC0001EB5321FEF7E8FA019B00289DD1C3F3BF
:1046DC0008034B4418700CE0A96A284601EB14211E
:1046EC00FEF7DAFA002890D1640004F4FF742C442D
:1046FC00208785F80380D5E90632911E8B4205D2BE
:10470C000133AB612B7943F001032B7152455FD917
:10471C0037685446FB696DE7A96A284601EBD4114A
:10472C00FEF7BAFA00287FF470AFA40004F4FE740C
:10473C0059F8042029F804004C44130EA07003F01F
:10474C00F003E370D5E7B96A384601EB1421FEF7A4
:10475C00A3FA00287FF475AF630003F4FF733B44A6
:10476C00B3F838A081E709F80B002846A96AEF7066
:10477C0001EB53210193FEF78FFA00287FF445AF2C
:10478C00019BC3F3080319F803004B4400F0F0003D
:10479C001870AEE7CAF30803B96A0AF1010A384681
:1047AC003B4401EB5A2193F838B0FEF775FA002818
:1047BC007FF447AFCAF3080AE107BA449AF83830D5
:1047CC004BEA032A4CBF4FEA1A1ACAF30B0A4CE7FE
:1047DC0000201AE770B582B0CDE9001069B114461B
:1047EC008C461CF8013B1F2B0BD93A2BF9D10B78BB
:1047FC00302B02D102318C4505D00B24204602B05F
:10480C0070BD3A2BF3D0164E35682DB1286901F0E6
:10481C007BF908B300232B70019D35B1002029468C
:10482C0001F8100B01F062F9B0B13560002CE5D045
:10483C00002201A96846FEF70DFC019B0446002BE3
:10484C00DCD0A0F10B02D2B2012AD7D90F28D5D0D7
:10485C00186901F067F9D1E70224204602B070BD57
:10486C00DC0200202DE9F04F91B0019100285AD0C4
:10487C0002F03F081646044603A901A84246FEF77B
:10488C00E9FB039F054690B1B0F10C0818BF4FF03F
:10489C0001080023236037B1B8F1000F03D005F0F5
:1048AC00FB030B2B29D1284611B0BDE8F08F4FF438
:1048BC000070049701F014F98146002838D0F86094
:1048CC0004A80199FFF77AF8F0B99DF93B30002B59
:1048DC00C0F2C78016F01C0F30D19DF81630DA06E6
:1048EC0000F1CF80B10740F1C380DA0740F1C080FE
:1048FC00484601F0F9F825600725386901F012F9EE
:10490C00284611B0BDE8F08F16F01C0F01D004281A
:10491C0023D0B0F10C0818BF4FF0010805464846EB
:10492C0001F0E2F8B5E70925284611B0BDE8F08F93
:10493C008FB13869112501F0F5F8B4E79DF8163000
:10494C0013F0110F40F09980730740F18E804FF0F7
:10495C0001080820E2E71125A5E704A848F008089B
:10496C00FFF7D2F90028D4D101F0BCF90B9B020A55
:10497C00C3F80E000B9BDA75020C9875000E1A76B4
:10498C0058763A780B9B032A5E8B02D19A8A46EAB8
:10499C0002462022DA7200220B9B5A8339780329B3
:1049AC0000D19A820B9B0022DA610123FB7086B145
:1049BC007B6B04A831460093FFF70AFE009B00288E
:1049CC00A7D1013E19463846FEF766F97E610028EC
:1049DC009FD148F040087B6B23620B9B63623A7853
:1049EC005E8B032A02D19A8A46EA02460021A6600F
:1049FC0004F1280AD3F81CB0FB884FF4007250461F
:104A0C002760C4F80CB0A38084F810806174E16155
:104A1C00616109F0DDFA18F0200F1ED0BBF1000F18
:104A2C001BD07B89C4F814B0BBEB432F4FEA43284F
:104A3C002DD9384604E0431C56D0D84554D22068B2
:104A4C003146ABEB080BFEF7E3F901280646F2D82A
:104A5C00A0614FF00108022060E7484601F044F8DD
:104A6C004BE74FF00108062058E73007B3D57BE73A
:104A7C0006F00806002EAED0ABE74FF00108072079
:104A8C004CE7484601F030F82560042535E7A6616F
:104A9C00CBF30803002BE0D0FB69023E023B9E42A5
:104AAC000AD27A893B6B06FB023666B94846022568
:104ABC0001F01AF8266020E74846022501F014F8A8
:104ACC000023236019E706EB5B2251460123E261C8
:104ADC00787801F0B5F80028BFD04846012501F0E0
:104AEC0003F80023236008E7711CA6610CBF0120AA
:104AFC000020CDD14FF0010810E700BF2DE9F04F99
:104B0C001D46002385B02B6050B1036804463BB1B1
:104B1C0092461A7822B10F46DA888188914205D0E4
:104B2C004FF00908404605B0BDE8F08F186900F059
:104B3C00F1FF002800F0CA802368587801F068F86B
:104B4C00C20700F1D68094F81180D4F80090B8F127
:104B5C00000F40F08980237C13F00103019300F0D7
:104B6C00AB806069E668361A564528BF5646002E5B
:104B7C0045D004F1280BCDF80880C0F308010029BA
:104B8C0055D1B9F80A20013A12EA50225AD0A0693C
:104B9C00D9F81C300238023B984260D2B9F80A109E
:104BAC00D9F8303001FB0033002B58D0B6F5007F1C
:104BBC0002EB030A27D302EB56204FEA5628884211
:104BCC0099F8010088BFA1EB0208524639464346CA
:104BDC0001F036F800285CD194F91020002AC0F2BC
:104BEC0092804FEA482A2B68B6EB0A065744534486
:104BFC002B60606950446061BFD1DDF80880B9F169
:104C0C00000F3ED18EE7E26952450BD094F910307B
:104C1C00002B5EDB01235246594699F8010001F046
:104C2C000FF8B0BB6169C4F81CA0C1F30801C1F551
:104C3C00007A38465944B24528BFB246524609F06C
:104C4C0091F9D0E788BBA068012808D9431C20D073
:104C5C00D9F81C30A0610238023B98429ED34FF029
:104C6C00020884F811800CE0B9F1000F3FF45AAF40
:104C7C00A8F10B03012B7FF655AFB8F10F0F3FF4E2
:104C8C0051AFD9F8100000F04DFF404605B0BDE81B
:104C9C00F08F0123DDF804806374D9F8100000F064
:104CAC0041FF404605B0BDE8F08FA1692068039232
:104CBC00FEF7AEF8039AC7E7B9F1000F16D0D9F892
:104CCC0010004FF0070800F02DFF2BE74FF00F08F6
:104CDC0028E70123594699F8010000F0C7FF002886
:104CEC00D7D1237C03F07F03237493E74FF007089D
:104CFC0018E72368002B3FF413AF18694FF009082D
:104D0C0000F010FF0EE7E069A0EB0A004045BFF48D
:104D1C0068AF07EB40204FF40072594609F022F9B6
:104D2C005FE700BFF8B540B1036804462BB11A78B1
:104D3C001AB18188DA88914202D009252846F8BD3B
:104D4C00186900F0E7FE00287CD02368587800F042
:104D5C005FFFC10778D4237C26685A0635D51B061D
:104D6C0063D400F0BFFF216A07463046FDF794FF7D
:104D7C00054600284BD1636ADA7A42F02002DA72D7
:104D8C00A2682168C2F307209A76D876097803299D
:104D9C0003D1120C1A75120A5A75E1680022C3F875
:104DAC0016703046D9615A820123F370FEF786F8EB
:104DBC00237C0C28054623F040032374BED000F05E
:104DCC00FB030B2B2BD12DB1B8E7002EB5D03069DE
:104DDC0000F0A8FE2368002BAFD01A78002AACD0C4
:104DEC00A188DA889142A8D1186900F093FE48B3E3
:104DFC002368587800F00CFF10F00105236831D1BE
:104E0C002560002B9AD0186900F08CFE96E7002ED6
:104E1C0094D00C2892D000F0FB030B2B8ED0306971
:104E2C0000F080FE002DD5D088E70123E26904F163
:104E3C002801707800F01AFF78B9237C03F07F0307
:104E4C0023748EE70F2579E72368002B3FF475AFA9
:104E5C001869092500F066FE70E73069012500F03D
:104E6C0061FE6BE7002B3FF468AFF1E77F2801D8B8
:104E7C0080B27047B0F5803F14D240F25233994261
:104E8C0010D1094A002301E0802B0BD032F8021B11
:104E9C001FFA83FC01338142F6D10CF1800C1FFA0E
:104EAC008CF0704700207047CCF400607F2806D946
:104EBC00FF2803D840F25233994201D000207047AA
:104ECC00024B034A034432F81300704780FFFF7F04
:104EDC00CCF40060B0F5803F1DD2254B254A30B58F
:104EEC00B0F5805F28BF134684B204330AE033F870
:104EFC00022C5FFA82FC120A0CEB010E70450BDBE4
:104F0C00043392B133F8041C1D464A1E92B29442EB
:104F1C00EDD8204630BD7047082AFAD8DFE802F0F9
:104F2C000C1016191C1F2225080005EB4C03DCE79E
:104F3C00A4F5E354A4B2ECE7411A33F81140E8E7C6
:104F4C00631A03F00103E31A9CB2E2E7103CA4B22B
:104F5C00DFE7203CA4B2DCE7303CA4B2D9E71A3C32
:104F6C00A4B2D6E70834A4B2D3E7503CA4B2D0E73D
:104F7C001CF2006010F400609A4B5A69F0B59A4E1E
:104F8C0094039A4D85B0A5EB06050ED5BFF34F8F54
:104F9C00BFF36F8F5A69002122F400325A61C3F8B3
:104FAC005012BFF34F8FBFF36F8F8E494B69D803ED
:104FBC0035D50023C1F88430BFF34F8F4B6923F4F0
:104FCC0080334B61BFF34F8F03AB02AAC1F8702241
:104FDC00C1F8703201ABC1F87032BFF34F8FBFF321
:104FEC006F8FD1F8803043F6E077C3F3C90C01938F
:104FFC00C3F34E335C0104EA0700634640EA837254
:10500C00013BC1F874225A1CF8D1203C14F1200F3A
:10501C00F1D1CDE90233BFF34F8FBFF36F8FBFF3E5
:10502C005F8F704B5A6A22F480325A62D3F8942004
:10503C0022F00102C3F89420BFF34F8FBFF36F8FA0
:10504C0010226B496B48012DC3F89C206A4AC3F8A7
:10505C00A0206A4AC3F89C20694AC3F8A010C3F880
:10506C009C20C3F8A0106749C3F89C00C3F8A0109B
:10507C004FF01401644AC3F89C106449C3F8A010A3
:10508C004FF01501C3F89C106149C3F8A020C3F878
:10509C009C1001F50011C3F8A02001F101015D4A3B
:1050AC00C3F89C105C49C3F8A010A1F10201C3F82D
:1050BC009C205A4AC3F8A010C3F89C20584AC3F845
:1050CC00A02026D900242746013425FA04F3012B0D
:1050DC00F9D8F4B1B6FBF5F305FB1363002B74D1CF
:1050EC000123A340AB4204D08D224E494E4808F018
:1050FC0047FE042C6FD97B0026F01F024B4903F0AE
:10510C003E03384842F01A021943C0F89C20C0F8FC
:10511C00A0103449464C4748474A484BC1F89C407C
:10512C00C1F8A000C1F89C20C1F8A030BFF35F8F7C
:10513C000523C1F894304B6A43F480334B62BFF3C0
:10514C004F8FBFF36F8F4B6913F4803324D1C1F8A9
:10515C008430BFF34F8FD1F8805043F6E076C5F31F
:10516C004E34C5F3C905640104EA06002B4640EA37
:10517C008372013BC1F860225A1CF8D1203C14F117
:10518C00200FF1D1BFF34F8F4B6943F480334B6148
:10519C00BFF34F8FBFF36F8F124A536913F4003371
:1051AC0011D1BFF34F8FBFF36F8FC2F85032BFF3E3
:1051BC004F8FBFF36F8F536943F400335361BFF3C9
:1051CC004F8FBFF36F8F05B0F0BD8C2215491C4873
:1051DC0008F0D6FD84E78E2212491A4808F0D0FD5B
:1051EC0089E700BF00ED00E00000E08100000082D4
:1051FC0039001003130000603F0000101100008004
:10520C00120000602D000306210003033B00100375
:10521C001600002018002820250003031900008028
:10522C0031000303CCF5006040F600600100080378
:10523C001B0000402B0010031C0000422700100331
:10524C0028F600605CF6006038B5BE4A4FF40040AA
:10525C00BD4B10600020D3F8C022BC4942F4803210
:10526C00BB4CC3F8C022D3F8C02222F40032C3F8DE
:10527C00C0220C6001F008FF01F038FF012001F0A2
:10528C0029FFB44A136823F0FF0343F07F03136034
:10529C00936923F4405343F480539361536943F06F
:1052AC0000735361936C9D06FCD4AB4AD36823F016
:1052BC001F0343F01303D3601368002BFCDAA54AD9
:1052CC00536923F4E0535361936C9C07FCD4A14ABB
:1052DC0002F16C0353E8003F23F4403302F16C00FD
:1052EC0040E800310029F3D19A4A02F16C0353E8EB
:1052FC00003F23F4407302F16C0040E800310029B8
:10530C00F3D1944A02F1700353E8003F23F44003B5
:10531C0002F1700040E800310029F3D18D4A02F10E
:10532C00700353E8003F23F0407302F1700040E833
:10533C0000310029F3D1874A02F1700353E8003F92
:10534C0023F4404302F1700040E800310029F3D10E
:10535C005369804943F440735361136923F0070385
:10536C0043F0010313618B6CD803FCD44B69794A6D
:10537C0023F060534B6102F16C0353E8003F23F4BC
:10538C00401302F16C0040E800310029F3D1714A5E
:10539C0002F16C0353E8003F23F4400302F16C006C
:1053AC0040E800310029F3D16A4A02F1680353E85E
:1053BC00003F23F0407302F1680040E800310029FF
:1053CC00F3D1644A02F1680353E8003F23F04063D1
:1053DC0002F1680040E800310029F3D15D4A02F186
:1053EC006C0353E8003F23F4405302F16C0040E897
:1053FC0000310029F3D1D369564923F03F0343F020
:10540C000103D36101F1800353E8003F23F00C0347
:10541C0001F1800040E80032002AF3D14B6A4D4A7A
:10542C0023F4605343F400634B62CB6923F4803361
:10543C00CB6102F1800353E8003F23F0300302F10B
:10544C00800040E800310029F3D1536A414923F42C
:10545C00E02343F480335362D36923F40033D361E4
:10546C0001F1840353E8003F23F00C0301F18400A5
:10547C0040E80032002AF3D18B69364A23F06043AE
:10548C0043F000538B618B6923F4407343F48073B6
:10549C008B6102F1700353E8003F23F00C0302F11F
:1054AC00700040E800310029F3D1D36B294923F473
:1054BC00605343F40063D363D36B23F4C063D363AF
:1054CC0001F16C0353E8003F23F0030301F16C007E
:1054DC0040E80032002AF3D11E4A02F16C0353E873
:1054EC00003F23F00C0302F16C0040E8003100296E
:1054FC00F3D1184A02F16C0353E8003F23F0300358
:10550C0002F16C0040E800310029F3D1114A02F19C
:10551C006C0353E8003F23F0C00302F16C0040E839
:10552C0000310029F3D193690A4923F0E05343F089
:10553C0080539361936923F0300343F0200393610C
:10554C000CE000BFD007002000800D40D4070020E5
:10555C0000366E0100C00F400000084001F16803E6
:10556C0053E8003F23F4400301F1680040E80032A7
:10557C00002AF3D14B6AC74A43F0C0634B628B6974
:10558C0023F440438B6102F17C0353E8003F23F486
:10559C00402302F17C0040E800310029F3D1936AEA
:1055AC00BC4923F4E07343F0C0039362936A23F085
:1055BC003F0343F001039362D36923F44063D36147
:1055CC0001F17C0353E8003F23F4401301F17C000C
:1055DC0040E80032002AF3D1CB6AAE4A23F4E073E0
:1055EC0043F0C003CB62CB6A23F03F0343F00103CB
:1055FC00CB62CB6923F44053CB6102F17C0353E8BB
:10560C00003F23F4400302F17C0040E80031002904
:10561C00F3D1936A9F4923F0E07343F44003936200
:10562C00936A23F47C1343F480339362D36923F499
:10563C004043D36101F1700353E8003F23F0C003F2
:10564C0001F1700040E80032002AF3D1914A02F1D6
:10565C00700353E8003F23F4407302F1700040E8FC
:10566C0000310029F3D18B4A02F1700353E8003F5B
:10567C0023F4406302F1700040E800310029F3D1BB
:10568C00936B844923F0FC739363936B23F4802313
:10569C00936301F1680353E8003F23F4404301F1A5
:1056AC00680040E80032002AF3D17A4A02F168031C
:1056BC0053E8003F23F4402302F1680040E8003136
:1056CC000029F3D1734A02F1840353E8003F23F01D
:1056DC00C00302F1840040E800310029F3D16D4A87
:1056EC0002F1680353E8003F23F4403302F16800F1
:1056FC0040E800310029F3D1664A02F1680353E80F
:10570C00003F23F4401302F1680040E80031002907
:10571C00F3D1604A02F1840353E8003F23F4407351
:10572C0002F1840040E800310029F3D1136A594991
:10573C0023F0FC0343F004031362136A23F4407355
:10574C0043F40073136201F17C0353E8003F23F030
:10575C00407301F17C0040E80032002AF3D14D4A3D
:10576C0002F1680353E8003F23F0405302F1680054
:10577C0040E800310029F3D1464A02F1680353E8AE
:10578C00003F23F4405302F1680040E80031002947
:10579C00F3D1404A02F16C0353E8003F23F040730D
:1057AC0002F16C0040E800310029F3D1394A02F1D2
:1057BC00740353E8003F23F00C0302F1740040E83B
:1057CC0000310029F3D1334A02F1740353E8003F4E
:1057DC0023F0C00302F1740040E800310029F3D13A
:1057EC002C4A02F17C0353E8003F23F0406302F1A2
:1057FC007C0040E800310029F3D1264A02F18003F5
:10580C0053E8003F23F4404302F1800040E80031AC
:10581C000029F3D1536A1F4923F03F035362536AA3
:10582C0023F04003536201F1740353E8003F23F467
:10583C00406301F1740040E80032002AF3D18B6B15
:10584C00144A23F4E04343F480538B638B6923F0B5
:10585C00607343F0C0738B618B6B23F4603343F440
:10586C0020338B6302F17C0353E8003F23F4404365
:10587C0002F17C0040E800310029F3D1136B05499B
:10588C0023F0606343F000731363136B43F0E07316
:10589C00136301E000C00F40136B43F44013136318
:1058AC0001F17C0353E8003F23F00C0301F17C0071
:1058BC0040E80032002AF3D10B6B804A23F4E0431A
:1058CC0043F480530B630B6B43F460630B630B6B00
:1058DC0043F4C0730B6302F1740353E8003F23F0ED
:1058EC00030302F1740141E80035002DF3D1936AF2
:1058FC00734823F46063734C43F400739362936AAC
:10590C0043F060639362136A43F4C0131362D36869
:10591C0023F00103D36001F0F3FB01F055FC4FF4CD
:10592C008033012268496367D4F8703123F4004353
:10593C00C4F87031D4F8703123F40003C4F870311A
:10594C00236F43F400532367D4F8A03023F400539F
:10595C00C4F8A030D4F8A03023F4E03343F48033FF
:10596C00C4F8A030C4F8B050C4F8C020D4F8A000DB
:10597C00564BD4F87021014042F040420B43C4F81E
:10598C007021C4F8A030D4F8A030002BFBDA4FF40F
:10599C008035C4F8A85001F01FFCC4F8E450D4F8CA
:1059AC00E03023F0030343F00103C4F8E030D4F8F3
:1059BC00E03043F40053C4F8E030D4F8E03023F086
:1059CC000C03C4F8E030D4F8E03043F48013C4F88E
:1059DC00E030D4F8E03043F40013C4F8E03001F0C8
:1059EC00EDFB6562226A354B42F4005222629A69E1
:1059FC0042F440229A615A6922F000725A619A6C00
:105A0C009206FCD499692F4821F44051304A314C0C
:105A1C009961D96921F04001D961D0F8601121F068
:105A2C001F01C0F86011196E2B4821F07001196626
:105A3C00196E21F00F0141F001011966196E21F464
:105A4C0060011966196E21F4F81141F49011196670
:105A5C00196E21F480711966196E21F08001196696
:105A6C00196E21F08071196653681C4923F00703E5
:105A7C005360536823F038035360536823F0C0031A
:105A8C005360536823F440735360536823F44063AA
:105A9C00536093681C409460536823F40033536044
:105AAC00536823F480235360536923F0805353616C
:105ABC00536923F000535361016038BD00C00F409F
:105ACC0064F6006000800D4080CFFFFF1F200800AF
:105ADC0000C00A40FFFF00FBC40200200046C323A5
:105AEC000146012000F0FEBE00F020BF38B50122B7
:105AFC00044D0C462846114607F0D0FA01202560CB
:105B0C0038BD00BFE402002008B507F0CDFA012033
:105B1C0008BD00BF4FF0FF3108B507F095FC012020
:105B2C0008BD00BF07F0E4BB38B5344C22789107B0
:105B3C0009D440B9324B1D6875B1324B93F82430FF
:105B4C002BB3D30701D4104638BD2E4D284606F092
:105B5C00CFF968BB2278F6E701221A6000F07EF9D3
:105B6C001821284602F08AF8274B4FF42F72294649
:105B7C00586A20F460505862D86940F48030D8617B
:105B8C00204808F025FA237843F001032370002302
:105B9C0005221C48194600F051FA1A4806F048F93B
:105BAC000021184806F078F92278D307CBD5CCE73A
:105BBC00284606F0C9F92846012106F06DF9284659
:105BCC0005F024FC68B1284606F0F4F84FF42F7267
:105BDC000021284608F0FCF9227842F001022270DC
:105BEC00B1E7A96A094808F08FF823784FF4FA70E6
:105BFC0023F00103237007F0F5F9ABE7B80200209E
:105C0C00F4020020F802002000C00F4080F6006073
:105C1C0008B10120704710B5074C0848237843F0B1
:105C2C000203237006F064F908B9207810BD2078BF
:105C3C0000F0FD00207010BDB8020020F80200201A
:105C4C0058B908480078C00709D4074808B505F0CA
:105C5C004FF9003818BF012008BD01207047032000
:105C6C00704700BFB8020020F802002058B908485D
:105C7C000078C00709D4074808B505F067FA003862
:105C8C0018BF012008BD012070470320704700BFDA
:105C9C00B8020020F802002058B952B10F4B187806
:105CAC0010F0010018D1032903D8DFE801F0040635
:105CBC000B100420704708467047094BD3F8AC32E0
:105CCC0013607047064BD3F8B03213807047044B07
:105CDC0093F885321360704703207047B802002098
:105CEC00F80200200020704704F06EB8F0B52C4E7E
:105CFC0089B0347814B1002009B0F0BD294B0125CE
:105D0C00132201A82027C3F8FC20C3F8CC54C3F8F5
:105D1C0000214DF6B002C3F8D054C3F8EC22C3F8FE
:105D2C00F0220394CDE90144CDE90444CDE90644C5
:105D3C0002F0AAF81C4B0820039301F093FC1B4BB8
:105D4C0001A9A3FB00321A48520902F0ABFAADF8D4
:105D5C00004001A916480495CDF814D0CDE90144B2
:105D6C000224ADF808700394069402F00BFD002891
:105D7C00C2D106230290019001A9ADF800000C4895
:105D8C00CDF814D00694ADF808700393049502F086
:105D9C00F9FC0028B0D1074B3570188009B0F0BD64
:105DAC00B405002000801F40A0860100ABAAAAAA5F
:105DBC0000003F40B605002000000000114A138887
:105DCC0010B523EA000088B000242023108002A91B
:105DDC0001AA0394ADF80C300223ADF804000A4874
:105DEC0002949FED067BCDE906238DED047B02F03A
:105DFC00C9FC08B010BD00BFAFF30080020000006A
:105E0C0001000000B605002000003F40114B0022AD
:105E1C00B3F800C000B540EA0C0089B04FF0200C7C
:105E2C00039202A9029201AA18800223ADF8040081
:105E3C000948ADF80CC09FED057BCDE906238DED2F
:105E4C00047B02F09FFC09B05DF804FB020000002B
:105E5C0001000000B605002000003F401E4910B4B0
:105E6C0001F1780353E8003F43F00C0301F1780093
:105E7C0040E80032002AF3D1184B052006241849BB
:105E8C00C3F8D000C3F8AC01C3F8B44141F2B0047C
:105E9C00C3F8BC211348C3F8C021C3F8C421C3F80C
:105EAC00C821C3F8CC21C3F8D0210F4AC3F8C04293
:105EBC00C3F89C135DF8044BC3F8A403C3F8AC13EC
:105ECC00C3F8B023C3F8B413C3F8B813C3F8BC13A6
:105EDC00C3F8C013704700BF00C00F4000801F40C4
:105EEC0089700100A1700100894001000F4B98429C
:105EFC0010B418D90E4B0F4C98420F4B0F49104A47
:105F0C0084BF21461A460F4B5DF8044BC3F8AC23F3
:105F1C00C3F8B013C3F8B423C3F8B823C3F8BC2335
:105F2C00C3F8C02370470849084AECE780F0FA022E
:105F3C0000E1F505F9000100F9700100B90001005C
:105F4C00B970010000801F40390001003970010058
:105F5C0000B583B008480DF1070100F01BFF38B9FC
:105F6C009DF80700B0FA80F0400903B05DF804FB1F
:105F7C00002003B05DF804FBB805002030B50C4DD3
:105F8C0083B0AC6894B10DF107010A4800F002FF30
:105F9C0030B100206969234603B0BDE83040184792
:105FAC009DF80700B0FA80F04009F3E703B030BD6C
:105FBC00D8050020B805002018B10121034800F0D5
:105FCC001BBF0146014800F017BF00BFC8050020E9
:105FDC00154B642270B55A600026144A82B0986042
:105FEC000446DA600D46596101A91E70104B114828
:105FFC001B68019300F03AFE04210E4800F046FFA6
:10600C000D4932460B4800F029FF0DF103010948F8
:10601C0000F0C0FE30B99DF803301BB914B129460D
:10602C000120A04702B070BDD80500205D5F006064
:10603C0000F70060B8050020895F00602DE9F04191
:10604C000F4682B004461546984600283BD0214E98
:10605C002D01214B2148EDB2F36220233363012340
:10606C0086F880301E4B2660336001F06FF81821E3
:10607C00002001F003FE1B4B1B4A01A950685A6A11
:10608C0022F4605242F400625A62DA6942F48032BD
:10609C00DA61164B01907360154B1648A361164BD1
:1060AC006360164B2361164B6361164BE36100F082
:1060BC00DDFD41463846FFF78BFF134B83F86E53DB
:1060CC0002B0BDE8F081E3221049114807F058FEF8
:1060DC00BDE700BFF00500200000E0816CF6006019
:1060EC0000002C4000C00F4000F70060803DCD0B3D
:1060FC00D8050020C8050020C55F0060F95E00606F
:10610C00BC02002000E1F50500E100E098F600601B
:10611C00F8F60060124A10B402F1780353E8003F1D
:10612C0043F00C0302F1780141E800300028F3D170
:10613C000C4B022441F2B001C3F8EC40C3F8F04020
:10614C00C3F8DC12C3F8E012536A5DF8044B23F079
:10615C0040035362536A23F03F035362704700BFFE
:10616C0000C00F4000801F4014207047144A30B408
:10617C0002F1780353E8003F43F00C0302F178017D
:10618C0041E800300028F3D10E4B022441F2B0015B
:10619C000325C3F85C51C3F83C45C3F81841C3F858
:1061AC003805C3F84C13C3F80813536A23F04003A3
:1061BC005362536A23F03F0330BC5362704700BFF5
:1061CC0000C00F4000801F4014207047704700BF74
:1061DC00024B00221A809A70FFF788BD78060020C7
:1061EC0002280DD8012810B504460AD0022810D078
:1061FC004FF48040FFF70AFE0A4B01221A5510BDDE
:10620C0070474FF40060FFF701FE064B01221A5550
:10621C0010BD4FF48060FFF7F9FD024B01221A55B7
:10622C0010BD00BF7806002002280DD8012810B53B
:10623C0004460AD0022810D04FF48040FFF7BEFD70
:10624C000A4B00221A5510BD70474FF40060FFF73F
:10625C00B5FD064B00221A5510BD4FF48060FFF7B8
:10626C00ADFD024B00221A5510BD00BF7806002070
:10627C00704700BF10B5EFF3108472B605F068FEDE
:10628C0006F040FCFFF7A2FFFFF7A2FF00F008F8B2
:10629C00FFF7EEFF00F0A2FA84F3108810BD00BFE8
:1062AC00704700BF70B528B304460D4601266C221A
:1062BC00002107F08DFEA5702046667005F0FEFFEC
:1062CC00054608B1284670BD3246314604F1080037
:1062DC0006F0E4FE3246314604F1180006F0DEFE0C
:1062EC0004F128006FF00042294606F0D7FE28463C
:1062FC00267070BD0225284670BD00BF002A18BF4D
:10630C00002B2DE9F04108D0054630B10C4616465D
:10631C00018840F20112914203D003242046BDE8CB
:10632C00F08100F108074FF0FF319846384607F02E
:10633C008BF844B1012C0ED00324384606F0D8FF5C
:10634C002046BDE8F0814346314605F1400001226C
:10635C0000F080FBF1E722464346314605F1500040
:10636C00002400F077FBE8E768B140F2011370B548
:10637C00028804469A4201D0032070BDC378012BD9
:10638C0003D0162070BD0320704700F108054FF0B4
:10639C00FF3100F12806284607F056F804F14000BA
:1063AC0000F062FB304606F07FFE6FF000420021E9
:1063BC00304606F073FE284606F09AFF002070BDAA
:1063CC002DE9F04182B038B10D4629B1028840F276
:1063DC00011304469A4204D00325284602B0BDE8B6
:1063EC00F081C67896BB036CABB3036DABB300F115
:1063FC0008084FF0FF3100F12807404607F024F859
:10640C0004F1400000F030FB04F1500000F02CFBD4
:10641C003846019706F048FE314601986FF000426D
:10642C0006F03CFE04F1380395E8030083E8030012
:10643C00204605F091FF054608B90123E37040465C
:10644C0006F056FF284602B0BDE8F0811725284615
:10645C0002B0BDE8F0811825BFE71925BDE700BFE4
:10646C00002918BF002A46D02DE9F041044658B146
:10647C000D4640F201130188994205D1C378012BD6
:10648C0005D01620BDE8F0810320BDE8F08100F1B5
:10649C00180800F150074FF0FF31AE18404606F0D7
:1064AC00D3FF05E00135204605F0D8FFB54224D0D6
:1064BC002946384600F0ECFA0028F3D0384600F0B4
:1064CC00DDFA034620468BB12946384600F0E0FA47
:1064DC00E8E7204605F0C2FF012006F083FD3846B0
:1064EC0000F0CCFA03462046002BEDD105F0DEFF80
:1064FC000128F1D1EDE703207047404606F0F8FE85
:10650C000020C2E72DE9F84340B10F4631B11646E1
:10651C0040F20113028804469A4203D00325284610
:10652C00BDE8F883C378012B03D016252846BDE8B7
:10653C00F88300F1080800F140094FF0FF314046A4
:10654C0006F082FF3946484600F0CCFA0A28054688
:10655C0012D060B11F2814D1012104F1280006F0DB
:10656C0073FF404606F0C4FE2846BDE8F883257943
:10657C00002D18BF1F25EFE72379002B0CBF1E251C
:10658C002025314604F1280006F05EFF0028E8D1F2
:10659C003946484600F0A6FA0A28054606D00028D7
:1065AC00DFD12579002D18BF1F25DAE72379002BC1
:1065BC000CBF1E252025D4E700B583B02BB100906D
:1065CC00044807F0A1FB00BFFDE70346024807F0B3
:1065DC009BFBF8E708F700602CF700602DE9F04111
:1065EC0000EB8003364F05464FEA800C07EB830324
:1065FC005C68EFF3108E72B6002C49D001F10F02DB
:10660C00636822F00F0202F11006B3424AD0203226
:10661C00934212D82368002B3AD0204605E08A42D8
:10662C0043D3196818460B4691B35968B142F6D159
:10663C001A6821461C46026005E09B1B2268A119C2
:10664C00A2514B60234603F1100014F1100F4FF0D0
:10665C000003666023601AD00CEB0508AC4407EB12
:10666C00880807EB8C0CD8F80C30D8F81020334481
:10667C00CCF804109342C8F80C30C8BFC8F81030DE
:10668C00104BC4E902538EF31088BDE8F0810C4620
:10669C00AC44002007EB8C0CCCF804408EF3108833
:1066AC00BDE8F08121682346CDE71A68A1EB060806
:1066BC0021461C469A519A19C2F804800260C2E71E
:1066CC007C060020CCDDEEFFEFF3108172B60028C3
:1066DC0043D03F4BA0F110022DE9F04750F8044C89
:1066EC009C4236D194680F2C33D83A4B4FEA840C29
:1066FC00394DD36004EB8403576805EB8303DE68E4
:10670C00F61BDE605E68EEB102EB0708B146B045E1
:10671C0026D017D333685BB39A4229D99E461B689F
:10672C000BB19A42FAD8F14623B3DEF804A0D14457
:10673C004A452AD098452FD040F8103CCEF800207E
:10674C00324601E040F8106C0CEB040305EB8305BA
:10675C006A6081F31088BDE8F08781F31088704778
:10676C00D8F80430D6593B4440F8106C5360EBE732
:10677C00B646D9E7DEF80480C1444A4518D0CEF8B5
:10678C000020324640F8103CDEE7984515D05744BF
:10679C003246CEE90037D7E7D8F80430CEF80020DF
:1067AC003B44D8F8007040F8107C53603246CBE77D
:1067BC0047443246CEE90037C6E7D8F804303246B3
:1067CC00D8F8000053443B44CEE90003BCE700BFBB
:1067DC00CCDDEEFF563412007C06002038B54FF4A9
:1067EC00A0720021174807F0F3FB174A174B9B1AAE
:1067FC005C1C0BD1134C164D00230122154825604F
:10680C00E3601146BDE8384006F048BC100702F0C2
:10681C000F0106D0202BEDD91032A1F11000521A25
:10682C000344202BE6D923F00F030021054C0A4822
:10683C00A360D06002F110009160C2E90013FFF771
:10684C0043FFD8E77C06002000000080FFFFDF81BB
:10685C0044F70060BC070020CCDDEEFF0F280ED8FB
:10686C002DE9F04104461D4D00EB800082B0A600DE
:10687C0005EB8000406818B102B0BDE8F0817047AC
:10688C00170702F00F0005D0202B05D91032103B52
:10689C00121A0344202B06D826440022B600AB194A
:1068AC00A951DA60E8E706EB040C23F00F03DFF8DC
:1068BC0030E04FF0000805EB8C0C02F11000019158
:1068CC00DCF808701F44CCF80870C2E90083C2E9F8
:1068DC00024EFFF7F9FE0199DEE700BF7C060020AF
:1068EC00CCDDEEFF0F2838B518D80E4B00EB80022C
:1068FC00044603EB82039B6883B10D4671B14FF0E4
:10690C00FF31094806F0A0FD29462046FFF766FE38
:10691C000446054806F0ECFC204638BD0024204611
:10692C0038BD00BF7C060020BC070020002850D0DA
:10693C004FF0FF312DE9F0470446424806F084FD44
:10694C00EFF3108172B6404AA4F1100354F8040C12
:10695C00904237D198680F2834D83C4A4FEA800CC3
:10696C003B4DDA6000EB80025F6805EB8202D66873
:10697C00F61BD6605668F6B103EB0708B146B04576
:10698C0028D018D33268002A4AD0934248D9964668
:10699C0012680AB19342FAD8F1461AB3DEF804A091
:1069AC00D1444B4529D090452ED044F8102CCEF82C
:1069BC000030334601E044F8106C0CEB000205EBA0
:1069CC0082056B6081F310881E48BDE8F04706F025
:1069DC008FBC7047D8F80420DE593A4444F8106C48
:1069EC005A60EAE7DEF80480C1444B451AD0CEF871
:1069FC000030334644F8102CDFE7904517D057444D
:106A0C003346CEE90027D8E7D8F80420CEF800307A
:106A1C003A44D8F8007044F8107C5A603346CCE7FE
:106A2C00B646BAE747443346CEE90027C5E7D8F85F
:106A3C0004203346D8F8004052443A44CEE9004290
:106A4C00BBE700BFBC070020CCDDEEFF56341200C4
:106A5C007C06002010B40024016082808460848154
:106A6C00C3805DF8044B7047EFF3108272B60023BD
:106A7C008360838182F31088704700BFEFF310822C
:106A8C0072B6C3888189581A80B282F31088704715
:106A9C0038B5EFF3108572B68389C2889A421CD040
:106AAC0001338288044683810389006813FB02F357
:106ABC0010FA83F007F056FA2389E28801339BB26F
:106ACC009A42238103D0002085F3108838BD00231F
:106ADC001846238185F3108838BD0B2085F3108868
:106AEC0038BD00BF38B5EFF3108572B683891BB97A
:106AFC000A2085F3108838BD0446013B828808467D
:106B0C00A3816389216813FB02F311FA83F107F067
:106B1C0029FA6389E28801339BB29A42638103D0DC
:106B2C00002085F3108838BD00231846638185F357
:106B3C00108838BDF0B51B4B8DB01B4D06461C683C
:106B4C000CAB0DF1040C03EB80070FCDACE80F0080
:106B5C000FCDACE80F0095E807008CE8070057F85C
:106B6C002C3C9D699D61DCB1012701E02468BCB11E
:106B7C00637B13F01C0FF9D0237B03F00F03B3429C
:106B8C00F4D1A389C3F3041307FA03F32B42EDD01A
:106B9C006368002BEAD0A06898472468002CE7D1E2
:106BAC000DB0F0BDCC070020E4F70060012008B563
:106BBC00FFF7C0FFBFF34F8F08BD00BF012008B522
:106BCC00FFF7B8FFBFF34F8F08BD00BF022008B519
:106BDC00FFF7B0FFBFF34F8F08BD00BF022008B511
:106BEC00FFF7A8FFBFF34F8F08BD00BF032008B508
:106BFC00FFF7A0FFBFF34F8F08BD00BF032008B500
:106C0C00FFF798FFBFF34F8F08BD00BF042008B5F6
:106C1C00FFF790FFBFF34F8F08BD00BF042008B5EE
:106C2C00FFF788FFBFF34F8F08BD00BF052008B5E5
:106C3C00FFF780FFBFF34F8F08BD00BF052008B5DD
:106C4C00FFF778FFBFF34F8F08BD00BF08B50620D4
:106C5C00FFF770FF0720FFF76DFF0820FFF76AFFB3
:106C6C000920FFF767FFBFF34F8F08BDF0B5002376
:106C7C008DB0434D0F4601AC0646ADF800308DF893
:106C8C0002300FCD0FC40FCD0FC495E8070084E878
:106C9C000700002E5CD0002F62D0B9780CAB03EB50
:106CAC00810353F82C3C002B65D0364D2C6894B1E5
:106CBC00F878234601E01B686BB11A7B02F00F02D7
:106CCC009142F8D19A89C2F304128242F3D142F66E
:106CDC0047700DB0F0BDEFF3108272B614B935E009
:106CEC009E422DD023462468002CF9D11E6000252D
:106CFC00356082F31088F978BB783C7801F01F017D
:106D0C00B08903F00F0304F0010C012C20F4FF50A8
:106D1C0043EA011220F01F0042EA4C2242EA000230
:106D2C00B28124D02C460CAA8DF8004002EB8303D0
:106D3C006A4653F82C0C01F019F800200DB0F0BD88
:106D4C0082F3108842F647700DB0F0BD2E60CEE78E
:106D5C004FF48C720C490D4807F012F8002F9CD19F
:106D6C0040F2191208490A4807F00AF895E77A78B0
:106D7C008DF80120D7E742F645700DB0F0BD00BF8D
:106D8C00E4F70060CC0700204CF70060CCF7006003
:106D9C00D8F7006070B5154C8CB00D4606460DF159
:106DAC00040C0FCCACE80F000FCCACE80F0094E84F
:106DBC0007008CE8070096B1337B0CA9B289002040
:106DCC0003F00F03C2F3041201EB830353F82C3CC2
:106DDC001B68D34003F001032B700CB070BD4FF453
:106DEC00AD720349034806F0CBFFE5E7E4F700601A
:106DFC004CF70060CCF7006070B5154C8CB00E46AB
:106E0C0005460DF1040C0FCCACE80F000FCCACE830
:106E1C000F0094E807008CE8070095B12B7B0CA8B9
:106E2C00A989321E03F00F0318BF0122C1F304110C
:106E3C0000EB830353F82C0C00F03AFF00200CB04D
:106E4C0070BD40F267120349034806F099FFE5E76D
:106E5C00E4F700604CF70060CCF7006070B50D46AD
:106E6C000446164618B10020C4E9015670BD40F224
:106E7C0075120449044806F083FF0020C4E901564A
:106E8C0070BD00BF4CF70060CCF700602DE9F043FB
:106E9C00564C99B0894606460DF1340C01AD0DF1F6
:106EAC001C0E0FCCACE80F000FCCACE80F0004F1BB
:106EBC000C0804F1240794E807008CE80700B8E8F4
:106ECC000F000FC598E8030045F8040B29800FCF7D
:106EDC00AEE80F0097E803004EF8040BAEF8001074
:106EEC00002E74D0727B12F002045BD109F1FF33D7
:106EFC00DBB2042B53D9737B69F384037373EFF305
:106F0C00108572B6337B18AAB18903F00F03C1F355
:106F1C00041102EB8303224653F82C0C00F0E2FE22
:106F2C00337BACB918AA03F00F03B18902EB8303CE
:106F3C000122C1F3041153F82C0C8A40436923EA53
:106F4C000203436185F31088002019B0BDE8F0837B
:106F5C0003F00F0318A9B289012001EB8301C2F3DE
:106F6C00041251F82C4C00FA02F10F2A666918AA87
:106F7C0041EA060102EB4303616118D833F95C3C2A
:106F8C00002B2BDB1A4A3024D11881F80043590905
:106F9C0003F01F0300FA03F342F82130D2E7154A3D
:106FAC00D45CA8E742F6457019B0BDE8F08333F91C
:106FBC00443C002B12DB0E4A3024D11881F80043DC
:106FCC00590903F01F03984042F82100BAE740F238
:106FDC0099120949094806F0D3FE83E703F00F0321
:106FEC00074A30211A441176ACE700BFE4F7006081
:106FFC0000E100E040F800604CF70060CCF7006066
:10700C00FCEC00E0002910DD00F01F020A44BFF385
:10701C004F8F06490244C1F85C022030131A002B32
:10702C00F9DCBFF34F8FBFF36F8F704700ED00E0BB
:10703C00002910DD00F01F020A44BFF34F8F0649F0
:10704C000244C1F868022030131A002BF9DCBFF39C
:10705C004F8FBFF36F8F704700ED00E0002910DDFC
:10706C0000F01F020A44BFF34F8F06490244C1F8D7
:10707C0070022030131A002BF9DCBFF34F8FBFF3D3
:10708C006F8F704700ED00E008B5B0B90E4A4FF0B5
:10709C008043C2F85831D2F87032D903FBD54FF483
:1070AC0080330949C2F85431D1F850311B04FBD557
:1070BC004FF48033C1F8583108BDC122034904484C
:1070CC0006F05EFEE2E700BF00800D4048F800606D
:1070DC00B8F80060044B102210B9C3F87422704742
:1070EC00C3F87822704700BF00800D40034AD2F8E5
:1070FC00703243F00103C2F87032704700800D40CB
:10710C00104A037910499B0310B414689BB224F401
:10711C00E03C43EA0C0343F48033136014680368C7
:10712C00214003F07F030B4343F4005313601368B7
:10713C00002BFCDA13685DF8044B23F480331360E6
:10714C00704700BF00800D4080CFFFFF10B4194B7B
:10715C00027B196B9203184C21F4E03192B20A4372
:10716C0042F480321A631A6B01781440428A01F09F
:10717C000101C2F30E02214341F40051196341682D
:10718C0021F040411965816821F040411966017C6C
:10719C00C089C90342EA004289B20A431A641A6BD5
:1071AC00002AFCDA1A6B5DF8044B22F480321A6365
:1071BC00704700BF00800D40FECFFFFF014B002247
:1071CC001A62704700800D40024B4FF480521A67D0
:1071DC00704700BF00800D40024B4FF48052C3F843
:1071EC00E020704700800D40954BC0F30B4200F03F
:1071FC001F0110B5D458CC4014F0010432D0D15832
:10720C0011F4404F30D00024D35813F4803329D1DB
:10721C008C4A904200F0B2803DD8A2F5A002904278
:10722C0000F0EE8027D9884A904251D1844B07EE6A
:10723C00904A93ED146AB8EE677B93ED185AB8EE4A
:10724C00466B1B6BB8EE455BDB0727EE067B87EEC8
:10725C00056B3FD404EB84039B00BCEEC66B16EEAF
:10726C00104A1C44204610BDD3F87012C9062DD408
:10727C0076490C68C8E70D2830D0A2F580129042F0
:10728C0026D16F4B1B6913F0020F14BF1623142366
:10729C0003FB04F4E6E76E4A904227D006D96D4B07
:1072AC006D4C984218BF0024204610BD6B4A90428A
:1072BC0025D002F5800290420AD1614B684AD3F87E
:1072CC00E03003F0030352F82340CBE7654C9BE717
:1072DC001C46C7E7162304FB03F3BEE7584B1B6899
:1072EC0003F07F0304FB03F35C08BBE7544B5C4ADD
:1072FC00D3F8E030C3F3810352F82340B2E7504B8C
:10730C0007EE904AD3F8A020B8EE675B93ED2C7A89
:10731C0093ED306A02F07F02B8EE477BD3F8A030D1
:10732C00B8EE466B03F4C01325EE075BB3F5002FE4
:10733C0085EE067BBCEEC77B17EE101A04FB02141D
:10734C007AD0B3F5801F07D0002B77D04FF48B6227
:10735C004549464806F014FD394BD3F8703103F01B
:10736C004043B3F1004F3FF47DAF57D8002B3FF4AF
:10737C0079AFB3F1804F54D1640873E7304B07EE0B
:10738C00904A1A6FB8EE675B93ED207A93ED246AFE
:10739C0002F07F02B8EE477B1B6FB8EE466B03F42E
:1073AC00C01325EE075BB3F5002F85EE067BBCEE14
:1073BC00C77B17EE101A04FB021439D0B3F5801FEB
:1073CC0007D0002B36D040F217422749274806F049
:1073DC00D7FC1B4B264AD3F870311340B3F5000F82
:1073EC003FF440AF16D8002B3FF43CAFB3F5004F41
:1073FC00C2D040F22B421C491C4806F0C1FC31E7BC
:10740C000F4B1B6A13F0020F14BF1623142303FB3C
:10741C0004F427E79342ECD1A40823E7B3F1404FDF
:10742C00FAD040F26C421049104806F0A9FC19E75A
:10743C006408CEE7A408CCE764088DE7A4088BE7C2
:10744C0000800D400D0070000D003000D4070020AE
:10745C001400E0001500E00040787D010D00A00054
:10746C00D0F8006000366E0148F80060C8F8006083
